:020000040000fa
:080000000002040000000000f2
:020000040000fa
:0400080034040000bc
:020000040000fa
:04000c0034040000b8
:020000040000fa
:0400100034040000b4
:020000040000fa
:0400140034040000b0
:020000040000fa
:0400180034040000ac
:020000040000fa
:04001c0034040000a8
:020000040000fa
:0400200034040000a4
:020000040000fa
:0400240034040000a0
:020000040000fa
:04002800340400009c
:020000040000fa
:04002c003404000098
:020000040000fa
:040030003404000094
:020000040000fa
:040034003404000090
:020000040000fa
:04003800340400008c
:020000040000fa
:04003c003404000088
:020000040000fa
:040040003404000084
:020000040000fa
:04004400d8020000de
:020000040000fa
:040048004c03000065
:020000040000fa
:04004c003404000078
:020000040000fa
:040050003404000074
:020000040000fa
:040054003404000070
:020000040000fa
:04005800340400006c
:020000040000fa
:04005c003404000068
:020000040000fa
:040060003404000064
:020000040000fa
:040064003404000060
:020000040000fa
:04006800340400005c
:020000040000fa
:04006c003404000058
:020000040000fa
:040070003404000054
:020000040000fa
:040074007e03000007
:020000040000fa
:04007800340400004c
:020000040000fa
:04007c003404000048
:020000040000fa
:040080003404000044
:020000040000fa
:040084003404000040
:020000040000fa
:04008800340400003c
:020000040000fa
:04008c003404000038
:020000040000fa
:040090003404000034
:020000040000fa
:040094003404000030
:020000040000fa
:04009800340400002c
:020000040000fa
:04009c003404000028
:020000040000fa
:0400a000c802000092
:020000040000fa
:0400a400d002000086
:020000040000fa
:0400a800340400001c
:020000040000fa
:0400ac003404000018
:020000040000fa
:0400b0003404000014
:020000040000fa
:0400b4003404000010
:020000040000fa
:0400b800340400000c
:020000040000fa
:0400bc003404000008
:020000040000fa
:0400c0003404000004
:020000040000fa
:0400c4003404000000
:020000040000fa
:0400c80034040000fc
:020000040000fa
:0400cc0034040000f8
:020000040000fa
:0400d00034040000f4
:020000040000fa
:0400d40034040000f0
:020000040000fa
:0400d80034040000ec
:020000040000fa
:0400dc0034040000e8
:020000040000fa
:0400e00034040000e4
:020000040000fa
:0400e40034040000e0
:020000040000fa
:0400e80034040000dc
:020000040000fa
:0400ec0034040000d8
:020000040000fa
:0400f00034040000d4
:020000040000fa
:0400f40034040000d0
:020000040000fa
:0400f80034040000cc
:020000040000fa
:0400fc0034040000c8
:020000040000fa
:0401000034040000c3
:020000040000fa
:0401040034040000bf
:020000040000fa
:0401080034040000bb
:020000040000fa
:04010c0034040000b7
:020000040000fa
:0401100034040000b3
:020000040000fa
:0401140034040000af
:020000040000fa
:0401180034040000ab
:020000040000fa
:04011c0034040000a7
:020000040000fa
:0401200034040000a3
:020000040000fa
:04012400340400009f
:020000040000fa
:04012800340400009b
:020000040000fa
:04012c003404000097
:020000040000fa
:040130003404000093
:020000040000fa
:04013400340400008f
:020000040000fa
:04013800340400008b
:020000040000fa
:04013c003404000087
:020000040000fa
:040140003404000083
:020000040000fa
:04014400340400007f
:020000040000fa
:04014800340400007b
:020000040000fa
:04014c003404000077
:020000040000fa
:040150003404000073
:020000040000fa
:04015400340400006f
:020000040000fa
:04015800340400006b
:020000040000fa
:04015c003404000067
:020000040000fa
:0402080034040000ba
:020000040000fa
:04020c0034040000b6
:020000040000fa
:0402100034040000b2
:020000040000fa
:0402140034040000ae
:020000040000fa
:0402180034040000aa
:020000040000fa
:04021c0034040000a6
:020000040000fa
:0402200034040000a2
:020000040000fa
:04022400340400009e
:020000040000fa
:04022800340400009a
:020000040000fa
:04022c003404000096
:020000040000fa
:040230003404000092
:020000040000fa
:04023400340400008e
:020000040000fa
:04023800340400008a
:020000040000fa
:04023c003404000086
:020000040000fa
:040240003404000082
:020000040000fa
:04024400d8020000dc
:020000040000fa
:040248004c03000063
:020000040000fa
:04024c003404000076
:020000040000fa
:040250003404000072
:020000040000fa
:04025400340400006e
:020000040000fa
:04025800340400006a
:020000040000fa
:04025c003404000066
:020000040000fa
:040260003404000062
:020000040000fa
:04026400340400005e
:020000040000fa
:04026800340400005a
:020000040000fa
:04026c003404000056
:020000040000fa
:040270003404000052
:020000040000fa
:040274007e03000005
:020000040000fa
:04027800340400004a
:020000040000fa
:04027c003404000046
:020000040000fa
:040280003404000042
:020000040000fa
:04028400340400003e
:020000040000fa
:04028800340400003a
:020000040000fa
:04028c003404000036
:020000040000fa
:040290003404000032
:020000040000fa
:04029400340400002e
:020000040000fa
:04029800340400002a
:020000040000fa
:04029c003404000026
:020000040000fa
:0402a000c802000090
:020000040000fa
:0402a400d002000084
:020000040000fa
:0402a800340400001a
:020000040000fa
:0402ac003404000016
:020000040000fa
:0402b0003404000012
:020000040000fa
:0402b400340400000e
:020000040000fa
:0402b800340400000a
:020000040000fa
:0402bc003404000006
:020000040000fa
:0402c0003404000002
:020000040000fa
:0402c40034040000fe
:020000040000fa
:0402c80034040000fa
:020000040000fa
:0402cc0034040000f6
:020000040000fa
:0402d00034040000f2
:020000040000fa
:0402d40034040000ee
:020000040000fa
:0402d80034040000ea
:020000040000fa
:0402dc0034040000e6
:020000040000fa
:0402e00034040000e2
:020000040000fa
:0402e40034040000de
:020000040000fa
:0402e80034040000da
:020000040000fa
:0402ec0034040000d6
:020000040000fa
:0402f00034040000d2
:020000040000fa
:0402f40034040000ce
:020000040000fa
:0402f80034040000ca
:020000040000fa
:0402fc0034040000c6
:020000040000fa
:0403000034040000c1
:020000040000fa
:0403040034040000bd
:020000040000fa
:0403080034040000b9
:020000040000fa
:04030c0034040000b5
:020000040000fa
:0403100034040000b1
:020000040000fa
:0403140034040000ad
:020000040000fa
:0403180034040000a9
:020000040000fa
:04031c0034040000a5
:020000040000fa
:0403200034040000a1
:020000040000fa
:04032400340400009d
:020000040000fa
:040328003404000099
:020000040000fa
:04032c003404000095
:020000040000fa
:040330003404000091
:020000040000fa
:04033400340400008d
:020000040000fa
:040338003404000089
:020000040000fa
:04033c003404000085
:020000040000fa
:040340003404000081
:020000040000fa
:04034400340400007d
:020000040000fa
:040348003404000079
:020000040000fa
:04034c003404000075
:020000040000fa
:040350003404000071
:020000040000fa
:04035400340400006d
:020000040000fa
:040358003404000069
:020000040000fa
:04035c003404000065
:020000040000fa
:10040000cf8020000edf20000e01880000000000d9
:10041000000020000000e000020032000001200087
:100420002002880014000700110107000000e0000e
:1004300003003a006077200001002000020037002e
:100440000000200001002000810f70000100320038
:1004500014000700000020000000e000020032004d
:1004600000000200000000008a07020000000000f7
:100470000040da000000fe004440a90040022000d5
:100480000000e0000300320000002000a00188000e
:100490004440a800000006008a1f78008b1f7800e7
:1004a0000000060091018800800478000000eb0045
:1004b0001a003700e284440032a0b4009905ba0063
:1004c000e284440032a0b4009906ba00e2844400f9
:1004d00032a0b4000006eb00476fde00fd07b2005b
:1004e000636ce10003003a00ebff07000000eb0043
:1004f0000a003700606ce10004003a00005deb0088
:100500008b05e900fdff3e00040037006168e10053
:10051000010032000086eb000b00070019c7ba008b
:100520001905ba000e04e00003003a000a00e000da
:10053000e0ff3a0000000600fe07b2009e018800be
:100540008a047800f5ff3700395dba008b05e900b1
:100550000c003200295dba008b05e900080032006a
:100560000c00e00003003a00e284440032a0b40032
:10057000f5ff370019ddba008b05e900faff3a00f4
:100580008904e800e184440032a0b40000000600c1
:100590000000fa0087c0a9000080fa0000400600b1
:1005a0000000fa0087e0a9000080fa000040060081
:1005b0003600f800809fbe00829fbe00849fbe0070
:1005c000869fbe000000fa00210480000008200081
:1005d000008060000000e0001d00320084e0a900ff
:1005e0000621ef00601680004800de0061406000d8
:1005f00000c0ea00614060000080fb006100600014
:100600004800dd00611680000180a100010070003b
:100610006016880001c8bf000004e000040032003a
:1006200001c8bf000040e90001e8b700080037003a
:1006300000c8bf000004e0000500320000c8bf0091
:100640000040e90000e8b700b0c3b30001e8b7001c
:1006500030c7b300d201070001c8bf000004e000aa
:1006600006003a0000c8bf000004e00003003a00a2
:10067000cd02a800a0452800690107000080fa000b
:100680004f03be004f02be004f01be004f00be0030
:100690003600f900004006003600f800809fbe00da
:1006a000829fbe00849fbe00869fbe000000fa00ad
:1006b0002104800000102000008060000000e000a5
:1006c000070032008500a90013e1a90011e1a9008b
:1006d00020c7b300b201070010c0b30003e8b700a1
:1006e0000080fa004f03be004f02be004f01be0063
:1006f0004f00be003600f900004006003600f8004a
:10070000809fbe00829fbe00849fbe00869fbe0069
:100710000000fa0030048000680060000000e00083
:10072000490032008660a9000500370000c8bf00fc
:100730000040e80000e8b70030c7b30098010700a8
:1007400010168000700060000000e0000c003a000d
:100750000180200091407800a0c3b30080cf5000fa
:10076000f2ff36000700370001c8bf000040e80074
:1007700001e8b70030c7b300890107000100370066
:100780000000000050168000700060000000e000d3
:1007900005003a001180200091407800a0c3b3000a
:1007a00080cf5000f0ff360010168000640060001b
:1007b0000000e00007003a0010c0b30004e8b700f2
:1007c0008500a9000a21ef0013e1a8000368ef00eb
:1007d0001d00370010168000640060000000e0007b
:1007e0001900320013e1a90003c8bf00e14f500017
:1007f00002003a000368ef001300370004c8bf008e
:10080000e14f500010003a008108800000002800ed
:10081000008060000000e00003003200cd02a9006b
:100820008008800008003700810880000000280050
:10083000008060000000e00003003a00cd02a80044
:100840000621ef0011e1a800000000000080fa007e
:100850004f03be004f02be004f01be004f00be005e
:100860003600f900004006000040da000000fe00fb
:100870000000050080007800010178003104e000ec
:0c088000fdff3a000000510000000600df
:020000040000fa
:10088c000d200000006d0000002000003a20000048
:10089c000073000020200000202000002020000019
:1008ac002020000000000000202d00002d41000041
:1008bc004c410000524d0000000000004845000073
:0808cc004c4c00004f0000003d
:020000040000fa
:1008d4000000fa00c802a900c822a800cc02a8009f
:1008e4008000200080118800113a80000000270059
:1008f4008080600000002600808f500003003a00d2
:10090400c0002000c011880010003700113a800098
:10091400000027008080600000002500808f5000c8
:1009240003003a00c0002000c0118800070037000f
:10093400113a800000002700008060000000e00001
:1009440002003a0070062000c011880000002a004e
:100954009011880087e0a90091058000f0ff28002d
:100964008080600000002300010070009005880072
:1009740097e0a80087c0a90091058000f08f2f00a0
:100984000080600000a0a0009005880097c0a90026
:1009940031e2a8003342a8000080fa0000000600fb
:1009a4000400fa00004f780011079800c8ff070000
:1009b4000b0037000000000091118000002020008f
:1009c400008060000000e000fbff3a001e00fb0016
:1009d400a01188001e0090000000e9001007980094
:1009e4001e0090000000e000f2ff3a00000000004a
:1009f4009111800000102000008060000000e000e1
:100a0400fbff320031e2a9000080fa00000006007a
:100a14000400fa00100798000040eb00104798000b
:100a24001100200000c2b300ddff07001100200008
:100a340000c3b300daff07001100200080c7b30031
:100a4400d7ff070030c0b300004f7800150037000f
:100a54001e00fb004200dd009e0090000008de0046
:100a6400004078006f406000104798001e409000de
:100a7400e94f5000040034001e4090007043b00061
:100a840010479800030037001e4090000043b00058
:100a940010479800110020001e409000c0ff07007e
:100aa4001e4fe9001e4078000004e000e8ff3d000e
:100ab4001100200000c2b300b9ff07000000eb00e2
:100ac400100798000080fa00000006000600fa00f3
:100ad40010079800210798000040eb001047980089
:100ae4001100200000c2b300adff07001100200078
:100af40000c3b300aaff07001100200080c7b300a1
:100b0400a7ff070070c0b300004f78001b00370038
:100b14001e00fb004201dd001e009000ae009000ac
:100b2400820178008301e900030033008100d100d1
:100b34000080d300fbff3700004078006f40600066
:100b4400104798001e409000e94f50000400340004
:100b54001e4090007043b000104798000300370017
:100b64001e4090000043b000104798001100200080
:100b74001e4090008aff07001e4fe9001e407800c7
:100b84000004e000e2ff3d001100200000c2b300b9
:100b940083ff07006000b800100798002107980041
:100ba4000080fa00000006000600fa002007980002
:100bb4001100200000c2b30079ff0700ae009000ce
:100bc400d0cc2c000008b8004308de00000f7800e9
:100bd4002e019000d0cc2c000010b8004308de0099
:100be4006a00b90000007800000051002047980016
:100bf4001e007800004078000043b000110020007f
:100c040067ff07002e4090000043b0001100200051
:100c140063ff07000080fa00000006000400fa00e9
:100c2400100798000000eb00000f78000600370062
:100c34001e0090001e0040001040780011002000ab
:100c440057ff07001e0fe8001e00900008ff070072
:100c54009e0f5000f6ff31000080fa0000000600ed
:100c64000400fa00100798001e009000e80f5000de
:100c740003003a000040eb00004f780010003700fa
:100c84009e009000401f2000808f500003003a0017
:100c940060c6b300004f7800090037009e00900042
:100ca40000022000808f500003003a0050c5b300ba
:100cb400004f78000200370050c5b300004f7800a1
:100cc40011028000000e2000010070001002880054
:100cd400213a8000f08f2f0000806000203a8800c5
:100ce4001e01fb0080072000a109200033742000ae
:100cf40080497800814978008249780012002000f8
:100d040060042000710520002374200080497800cd
:100d140081497800824978004207a8000000000059
:100d2400103a8000610060000000e000fcff3a001f
:100d340011028000f0f12f00008060001002880092
:100d44000080fa00000006000000fa000080eb00ba
:100d540060198800c882a800c042a800c082a80008
:100d6400c902a9006800a8006820a8006bc0a800f8
:100d74006000a8006020a80063c0a800610580008e
:100d840000002f0001007000600588009660a80034
:100d94008660a9000080fa00000006000200fa0044
:100da400004f780020c7b3009e40780080cf5000e9
:100db40002003a000068ef000168ef006044280078
:100dc40096ff070000c8bf000080fb0076ff070005
:100dd4009044280091ff0700b04428008fff0700cb
:100de40001c8bf000080fb006fff0700f04428002b
:100df4008aff07000080fa00000006000400fa00e1
:100e04002047980020c0b300004f78009e80fb006c
:100e140060802000008040008040eb0001487800a2
:100e24001e4fe9009e81fb002e4090000081fb00d4
:100e3400d0cc2c000010b8004308de006a00b900d2
:100e440000007800000051000040780080407800e5
:100e54006080200000804100014878002e4090000e
:100e64008080fb00d0cc2c000008b8004308de00d2
:100e7400204798004046280068ff0700e8ff370035
:100e84000000fa0020c7b300c4ff07001061a900e6
:100e940011a1a9001021a90011e1a90094e0a80062
:100ea40084e0a90000002d003005880000e823003c
:100eb4006008880013a1a9001221a90013e1a90068
:100ec4009500a8008500a900400580005000b300eb
:100ed4004005880000b82b00700888000368ef0004
:080ee4000080fa000000060086
:020000040000fa
:100eec000a080000020000000000000000080000da
:100efc0006000000000000000608000004000000ce
:080f0c000000000000000000dd
:020000040000fa
:100f14000000fa000002200051ff07008aff0700ca
:100f2400d7ff07000068ef000168ef000140fe00f2
:040f3400feff370085
:020000040000fa
:0200000401f009
:040010007f0000006d
:00000001FF
